:100000000C9463000C948B000C948B000C945D0496
:100010000C945D040C945D040C948B000C948B0088
:100020000C948B000C948B000C948B000C948B0024
:100030000C948B000C948B000C948B000C948B0014
:100040000C94BB030C948B000C942B040C940504AF
:100050000C948B000C948B000C948B000C948B00F4
:100060000C948B000C948B0000000008000201002F
:100070000003040700000000000000000000000072
:1000800023002600290000000000240027002A0089
:1000900000000000250028002B00040404040404D0
:1000A0000404020202020202030303030303010227
:1000B00004081020408001020408102001020408F6
:1000C00010202105201411241FBECFEFD8E0DEBF81
:1000D000CDBF24E0AAE5B1E001C01D92AA3AB20763
:1000E000E1F711E0A0E0B1E0E0E4FDE202C005903C
:1000F0000D92AA35B107D9F710E0C2E6D0E004C0EE
:100100002197FE010E949B14C136D107C9F70E94B6
:100110000A060C9493160C940000A2E9B3E0E0E206
:10012000F1E04D915D916D917D91528343833296C3
:1001300023E0AA3AB207A9F78330910569F0843029
:10014000910561F0029731F081E08093210190E008
:1001500080E0089582E0F9CF83E0F7CF84E0F5CF27
:100160003FB7F8948091720390917303A091740348
:10017000B091750326B5A89B05C02F3F19F00196D5
:10018000A11DB11D3FBFBA2FA92F982F8827BC01F1
:10019000CD01620F711D811D911D42E0660F771F19
:1001A000881F991F4A95D1F708958F929F92AF9219
:1001B000BF92CF92DF92EF92FF924B015C010E94BF
:1001C000B0006B017C010E94B0006C197D098E09A2
:1001D0009F09683E734081059105A8F321E0821ACA
:1001E0009108A108B10888EEC80E83E0D81EE11C72
:1001F000F11C81149104A104B10429F7FF90EF9040
:10020000DF90CF90BF90AF909F908F900895AF9266
:10021000BF92CF92DF92EF92FF920F931F93CF93F3
:10022000DF936C017B018B01040F151FEB015E0155
:10023000AE18BF08C017D10759F06991D601ED91EA
:10024000FC910190F081E02DC6010995892B79F789
:10025000C501DF91CF911F910F91FF90EF90DF903B
:10026000CF90BF90AF90089582E0809376038CE1A9
:100270008093770381E080937903909108019093B4
:100280007A038091090180937B0380910A01809316
:100290007C0380910B0180937D0380910C018093FE
:1002A0007E0380910D0180937F0380910E018093E6
:1002B000800380910F0180938103809110018093CE
:1002C00082038091110180938303809112018093B6
:1002D000840380911301809385038091140180939E
:1002E0008603809115018093870380911601809386
:1002F000880380911701809389038091180180936E
:100300008A038091190180938B03913011F09A3008
:10031000A1F581608093190180911A0180938C036B
:1003200080911B0180938D0380911C0180938E032B
:1003300080911D0180938F038FEF8093900383E062
:1003400080939103E9E7F3E08CE190E02191820F43
:10035000911D23E0E239F207C9F7809378034CE15D
:1003600050E066E773E08AEE93E00E94070164E1E3
:1003700070E080E090E00C94D5008E7FCBCFFC0144
:10038000538D448D252F30E0842F90E0821B930BFA
:10039000541710F0CF96089501970895FC01918DA0
:1003A000828D981761F0A28DAE0FBF2FB11D5D96A3
:1003B0008C91928D9F5F9F73928F90E008958FEF45
:1003C0009FEF0895FC01918D828D981731F0828DF9
:1003D000E80FF11D858D90E008958FEF9FEF089550
:1003E000FC01918D228D892F90E0805C9F4F821BB4
:1003F00091098F73992708958AEE93E00E94F00186
:1004000021E0892B09F420E0822F089580E090E01C
:10041000892B29F00E94FC0181110C9400000895A1
:10042000FC01A48DA80FB92FB11DA35ABF4F2C9169
:10043000848D90E001968F739927848FA689B78960
:100440002C93A089B1898C91837080648C93938D57
:10045000848D981306C00288F389E02D80818F7DFA
:1004600080830895EF92FF920F931F93CF93DF93B2
:10047000EC0181E0888F9B8D8C8D98131AC0E889E0
:10048000F989808185FF15C09FB7F894EE89FF89AF
:100490006083E889F98980818370806480839FBF4D
:1004A00081E090E0DF91CF911F910F91FF90EF904D
:1004B0000895F62E0B8D10E00F5F1F4F0F7311275D
:1004C000E02E8C8D8E110CC00FB607FCFACFE88998
:1004D000F989808185FFF5CFCE010E941002F1CF0E
:1004E000EB8DEC0FFD2FF11DE35AFF4FF0829FB70C
:1004F000F8940B8FEA89FB8980818062CFCFCF93FC
:10050000DF93EC01888D8823B9F0AA89BB89E8893B
:10051000F9898C9185FD03C0808186FD0DC00FB6E1
:1005200007FCF7CF8C9185FFF2CF808185FFEDCF5F
:10053000CE010E941002E9CFDF91CF910895209162
:100540009C0130919D012817390771F490919A010F
:1005500080919B01981741F0E0919A01F0E0E65AF2
:10056000FE4F808190E008958FEF9FEF08950895EA
:10057000EF92FF920F931F93CF93DF93DC015C9672
:10058000ED90FC905D97E114F10479F481E090E046
:1005900013969C938E93129790E080E0DF91CF9119
:1005A0001F910F91FF90EF9008955196ED91FC915E
:1005B000529750968C915097982F90950FB75E96C2
:1005C0002C915E97122F127021FD6095F894208176
:1005D000112319F1282B2083E7012197F1F728E057
:1005E000462F50E0308160FF1AC0382B3083E7017E
:1005F0002197F1F7BA0175956795215089F7112375
:1006000081F08081892380830FBF5C968D919C91BE
:100610000197F1F781E090E0C1CF2923DCCF3923A6
:10062000E5CF9081892BEFCF20919C0130919D01E6
:100630002817390771F480919B0120919A0190E06D
:10064000805C9F4F821B910960E470E00E947314EC
:10065000089590E080E0089520919C0130919D01E3
:1006600028173907B9F490919A0180919B01981746
:1006700089F0E0919A01F0E0E65AFE4F80812091E6
:100680009A0130E02F5F3F4F2F73332720939A0159
:1006900090E008958FEF9FEF089590E080E0089537
:1006A00080931A010C943401582F492F81382FEF71
:1006B000920714F451E84FEF252F342F20383105DD
:1006C00014F02FE730E0AB016138EFEF7E0714F450
:1006D00041E85FEF97FF06C080E890E0FC01E21B75
:1006E000F30B9F0177FF06C080E890E0BC01641B1C
:1006F000750BAB012093090181E080931C014093AD
:100700001D010C943401AC0197FF04C040E050E897
:10071000481B590B9B0177FF09C060E070E8FB01A3
:10072000E21BF30B9F0110920A0105C0672BD9F75A
:100730006FEF60930A0130930B0120930C01892B1A
:1007400049F48FEF80930D0150930E0140930F01F8
:100750000C94340110920D01F7CF87E894E00E94C9
:100760001403892B29F087E894E00E942C03F5CF2D
:1007700090E080E008951F920F920FB60F9211241F
:100780002F933F938F939F93AF93BF9380916E036B
:1007900090916F03A0917003B091710330916D033C
:1007A00023E0230F2D3758F50196A11DB11D20938D
:1007B0006D0380936E0390936F03A0937003B093C7
:1007C00071038091720390917303A0917403B091AF
:1007D00075030196A11DB11D80937203909373035D
:1007E000A0937403B0937503BF91AF919F918F91C4
:1007F0003F912F910F900FBE0F901F90189526E8F4
:10080000230F0296A11DB11DD2CF1F920F920FB6DA
:100810000F9211242F933F934F935F936F937F9386
:100820008F939F93AF93BF93EF93FF938AEE93E0E1
:100830000E941002FF91EF91BF91AF919F918F9114
:100840007F916F915F914F913F912F910F900FBECC
:100850000F901F9018951F920F920FB60F921124B0
:100860002F938F939F93EF93FF93E091FA03F0916F
:10087000FB038081E0910004F091010482FD1BC024
:100880009081809103048F5F8F73209104048217FD
:1008900041F0E0910304F0E0E651FC4F958F809326
:1008A0000304FF91EF919F918F912F910F900FBEB5
:1008B0000F901F9018958081F4CF1F920F920FB662
:1008C0000F9211242F933F934F935F936F937F93D6
:1008D0008F939F93AF93BF93EF93FF93E0919C010E
:1008E000F0919D01309749F0A685B7858585968D55
:1008F00091FF14C09C918923A1F4FF91EF91BF91C6
:10090000AF919F918F917F916F915F914F913F91A7
:100910002F910F900FBE0F901F9018959C918923D7
:1009200061F7A389B4899C918589809589238C93EB
:10093000868997890197F1F7608D718DA685B785B6
:10094000558538E020E0CB010197F1F7822F90E048
:1009500095958795282F4C91452309F020683150B3
:1009600091F7868D81FD209580919B0190E0019605
:100970008F73992730919A01381799F0A0919B01B4
:10098000B0E0A65ABE4F2C9380939B01828D938D2D
:100990000197F1F7A389B4898C919589892B8C9360
:1009A000ACCF868D8160868FF1CF90E0FC01E85955
:1009B000FF4F2491FC01E255FF4F3491FC01E656B4
:1009C000FF4FE491EE23C9F0222339F0233001F1E7
:1009D000A8F4213019F1223029F1F0E0EE0FFF1FC9
:1009E000E057FF4FA591B4918FB7F894EC91611146
:1009F00026C030953E233C938FBF08952730A9F041
:100A00002830C9F0243049F7809180008F7D03C0E1
:100A1000809180008F7780938000DFCF84B58F77BF
:100A200084BDDBCF84B58F7DFBCF8091B0008F7705
:100A30008093B000D2CF8091B0008F7DF9CF3E2B54
:100A4000DACF0F931F93CF93DF931092ED031092A1
:100A5000EC0388EE93E0A0E0B0E08093EE03909387
:100A6000EF03A093F003B093F10329E331E0309357
:100A7000EB032093EA0325EC30E03093F703209357
:100A8000F60324EC30E03093F9032093F80320ECD4
:100A900030E03093FB032093FA0321EC30E03093F5
:100AA000FD032093FC0322EC30E03093FF032093FE
:100AB000FE0326EC30E030930104209300041092F2
:100AC000030410920404109205041092060410927C
:100AD0008A041092890480938B0490938C04A093D1
:100AE0008D04B0938E048BE491E0909388048093FE
:100AF000870410929E0410929D041092A0041092FC
:100B00009F041092A2041092A1041092A4041092C7
:100B1000A3046091A5046E7F6D7F6093A504669524
:100B2000617081E0682786E00E94D50444EB50E0C4
:100B3000FA01649180EA90E0FC012491222399F06B
:100B400030E0220F331FF901EA57FF4FA591B4910E
:100B5000F901E057FF4F259134912FB7F8943C915C
:100B6000632B6C932FBFFA01449140939704FC01CF
:100B70008491E82FF0E0EE0FFF1FE057FF4F8591C3
:100B80009491909399048093980403EB10E0F801FA
:100B90002491CFE9D0E0FE0184918823C9F090E050
:100BA000880F991FFC01EA57FF4FA591B491FC01F2
:100BB000E057FF4F459154913FB7F8949C91822F95
:100BC000809598239C93FA019081892380833FBF6D
:100BD0008091A50481FD04C061E085E00E94D504F8
:100BE00085E080939304F801049100939404FE013E
:100BF000C491EC2FF0E0EE0FFF1FE458FF4F8591FA
:100C000094919093960480939504DF91CF911F91D6
:100C10000F910895CF93DF93CDB7DEB7C659D109B1
:100C20000FB6F894DEBF0FBECDBF789484B5826056
:100C300084BD84B5816084BD85B5826085BD85B580
:100C4000816085BD80916E00816080936E001092FE
:100C50008100809181008260809381008091810079
:100C6000816080938100809180008160809380000A
:100C70008091B10084608093B1008091B000816068
:100C80008093B00080917A00846080937A00809194
:100C90007A00826080937A0080917A0081608093EC
:100CA0007A0080917A00806880937A001092C10067
:100CB000E091FA03F091FB0382E08083E091F60378
:100CC000F091F7031082E091F803F091F90380E1CD
:100CD000808310920204E091FE03F091FF0386E00E
:100CE0008083E091FC03F091FD038081806180832B
:100CF000E091FC03F091FD03808188608083E091A6
:100D0000FC03F091FD03808180688083E091FC0307
:100D1000F091FD0380818F7D80831092A204109258
:100D2000A1041092A00410929F0410929E041092AD
:100D30009D048DE991E09093A4048093A304909185
:100D40009304963108F047C02DEB30E030939E04B9
:100D500020939D042BE931E03093A00420939F045D
:100D60002CE231E03093A2042093A104209168008A
:100D700084E0983048F031E09E3008F430E081E0C3
:100D800001C0880F3A95EAF7822B809368002DE620
:100D900030E0983050F02BE630E09E3030F02CE61A
:100DA00030E0963110F030E020E030939B04209347
:100DB0009A04292F30E0983008F054C481E001C033
:100DC000880F9A95EAF780939C048091A3049091F0
:100DD000A4040197F1F78091A1049091A204892BBA
:100DE00049F1E0919C01F0919D0104E0E738F007A2
:100DF00009F1309739F0A389B4899C918589809550
:100E000089238C938091A5048E7F8093A5041092F2
:100E10009B0110929A0187E894E090939D01809342
:100E20009C01E0919A04F0919B04808190919C0434
:100E3000892B80831C821B821E821D8261E070E0F0
:100E400090E080E00E94C6156B969FAF8EAF6B97C7
:100E5000009731F0DC011C9269E571E00E948C166C
:100E6000B1E0B09308010E943401809108018A30FA
:100E700011F00C9473108AEE93E00E94F0018090C0
:100E80005F0390906003A0906103B0906203181616
:100E900019060CF4F4C3E091C4012A96EFAF2A9727
:100EA000F091C501F9AF5090C6015BA2C090C70197
:100EB000CF8ED090C801CF57DF4FD882C158D040D5
:100EC000E090C901EF96EFAEEF97F090CA01C158DC
:100ED000DF4FF882CF57D0400091CB010DAF10917A
:100EE000CC011B8F2091CD012F8B3091CE0139ABDE
:100EF0004091CF012E964FAF2E975091D0015DAB10
:100F00006091D1016DA77091D2017B8B8091D3014B
:100F10008DA39091D40122969FAF2297A091D501E5
:100F2000CC57DF4FA883C458D040B091D601CD57DD
:100F3000DF4FB883C358D040E091D701CE57DF4F81
:100F4000E883C258D040F091A5016696FFAF66973E
:100F50005090A601C058DF4F5882C058D040C09072
:100F6000A701CE56DF4FC882C259D040D090A80109
:100F7000CF56DF4FD882C159D040E090A901C05769
:100F8000DF4FE882C059D040F090AA01C157DF4F2F
:100F9000F882CF58D0400091AB01C257DF4F088391
:100FA000CE58D0401091AC01C357DF4F1883CD58B5
:100FB000D0402091AD01C457DF4F2883CC58D0409A
:100FC0003091AE01C557DF4F3883CB58D0404091A8
:100FD000AF01C657DF4F4883CA58D0405091B00187
:100FE000C757DF4F5883C958D0406091B101C857E7
:100FF000DF4F6883C858D0407091B201C957DF4FA6
:101000007883C758D0408091B301EE968FAFEE97AA
:101010009091B40162969FAF6297A091B501CA57B3
:10102000DF4FA883C658D040B091B601B9A7E09170
:10103000B7012696EFAF2697F091B801CB57DF4F57
:10104000F883C558D0405090B9015B86C090BA0172
:10105000CF86D090BB01CD56DF4FD882C359D04048
:10106000E090BC01CC56DF4FE882C459D040F090EC
:10107000A301CB56DF4FF882C559D0400091A4019F
:10108000CA56DF4F0883C659D040C12CD12C7601F7
:10109000C814D904EA04FB040CF007C32BEF31E0B9
:1010A00038872F83F9018181819342E352E04E1703
:1010B0005F07C9F7F601ED5CFD4F80818093320236
:1010C0009091FB01923009F0C7C2833009F0C4C28D
:1010D0008091FC01883309F0BFC28091FE0190E04D
:1010E000B0E0A0E0CA96A11DB11D2091FF01820FC2
:1010F000911DA11DB11D20910002820F911DA11D06
:10110000B11D20910102820F911DA11DB11D5091B1
:1011100002026C965FAF6C97850F911DA11DB11DEA
:10112000609103026D966FAF6D97860F911DA11DA3
:10113000B11D709104026E967FAF6E97870F911D5F
:10114000A11DB11DE09105026F96EFAF6F978E0F55
:10115000911DA11DB11DF0910602A096FFAFA097B1
:101160008F0F911DA11DB11D50900702A1965FAE7A
:10117000A197850D911DA11DB11D00910802A29698
:101180000FAFA297800F911DA11DB11D10910902F3
:10119000A3961FAFA397810F911DA11DB11D209193
:1011A0000A02A4962FAFA497820F911DA11DB11D15
:1011B00030910B02A5963FAFA597830F911DA11DFE
:1011C000B11D40910C02A6964FAFA697840F911DBA
:1011D000A11DB11D50910D02A7965FAFA797850F76
:1011E000911DA11DB11D60910E02A8966FAFA89729
:1011F000860F911DA11DB11D70910F02A9967FAFA1
:10120000A997870F911DA11DB11DE0911002AA960B
:10121000EFAFAA978E0F911DA11DB11DF091110284
:10122000AB96FFAFAB978F0F911DA11DB11D5090D5
:101230001202AC965FAEAC97850D911DA11DB11D3C
:1012400000911302AD960FAFAD97800F911DA11DB8
:10125000B11D10911402AE961FAFAE97810F911D74
:10126000A11DB11D20911502AF962FAFAF97820F30
:10127000911DA11DB11D30911602E0963FAFE09780
:10128000830F911DA11DB11D40911702E1964FAF33
:10129000E197840F911DA11DB11D50911802E29696
:1012A0005FAFE297850F911DA11DB11D60911902DD
:1012B000E3966FAFE397860F911DA11DB11D70914D
:1012C0001A02E4967FAFE497870F911DA11DB11D0F
:1012D000E0911B02E596EFAFE5978E0F911DA11DE2
:1012E000B11D10911C02810F911DA11DB11D009116
:1012F0001D02800F911DA11DB11DF0911E02E696E9
:10130000FFAFE6978F0F911DA11DB11D50901F02D9
:10131000E7965FAEE797850D911DA11DB11D7090F9
:101320002002870D911DA11DB11D60902102860D27
:10133000911DA11DB11D50902202850D911DA11D71
:10134000B11D40902302840D911DA11DB11D30904F
:101350002402830D911DA11DB11D20902502820D37
:10136000911DA11DB11DE09126028E0F911DA11DA1
:10137000B11DF09127028F0F911DA11DB11D20916C
:101380002802E8962FAFE897820F911DA11DB11D8D
:1013900030912902E9963FAFE997830F911DA11D76
:1013A000B11D40912A02EA964FAFEA97840F911D32
:1013B000A11DB11D50912B02EB965FAFEB97850FEE
:1013C000911DA11DB11D20912C02820F911DA11D07
:1013D000B11D30912D02830F911DA11DB11D609192
:1013E0002E02EC966FAFEC97860F911DA11DB11DDB
:1013F00070912F02ED967FAFED97870F911DA11D84
:10140000B11D40913002840F911DA11DB11D40916D
:101410003102840F911DA11DB11D0396A11DB11DA7
:101420009927AA27BB274091FD0150E070E060E0BA
:1014300084179507A607B70709F004C1CA56DF4FFE
:101440002882C659D040CB56DF4F3882C559D0408C
:10145000CC56DF4F4882C459D040CD56DF4F58821A
:10146000C359D0406F867B86ED968FADED97CB57F5
:10147000DF4F8883C558D040EC969FADEC972696F9
:101480009FAF2697EB96AFADEB97A9A7EA96BFADB6
:10149000EA97CA57DF4FB883C658D040AD965FACC5
:1014A000AD9762965FAE6297AC964FADAC97EE96F5
:1014B0004FAFEE97E9965FADE997C957DF4F588375
:1014C000C758D040E8966FADE897C857DF4F68839C
:1014D000C858D040E7967FADE797C757DF4F78836E
:1014E000C958D040E6968FADE697C657DF4F888340
:1014F000CA58D040C557DF4F0883CB58D040C45797
:10150000DF4F1883CC58D040E5969FADE597C35781
:10151000DF4F9883CD58D040E496AFADE497C257E3
:10152000DF4FA883CE58D040E396BFADE397C157B5
:10153000DF4FB883CF58D040E2965FACE297C057F8
:10154000DF4F5882C059D040E1960FADE197CF569A
:10155000DF4F0883C159D040E0961FADE097CE56CB
:10156000DF4F1883C259D040AF964FADAF97C058E8
:10157000DF4F4883C058D040AE965FADAE976696B9
:101580005FAF6697CE57DF4FF883C258D040CD5734
:10159000DF4FE883C358D040CC57DF4F3883C4585F
:1015A000D04022962FAF2297AB966FADAB976DA32D
:1015B000AA967FADAA977B8BA9968FADA9978DA789
:1015C000A8969FADA8979DABA796AFADA7972E966F
:1015D000AFAF2E97A696BFADA697B9ABA596EFADC8
:1015E000A597EF8BA496FFADA497FB8FA3965FAC56
:1015F000A3975DAEA2960FADA297C158DF4F0883A7
:10160000CF57D040A1961FADA197EF961FAFEF9790
:10161000A0962FADA097CF57DF4F2883C158D04059
:101620006F963FAD6F973F8F6E964FAD6E974BA302
:101630006D965FAD6D9759AF6C966FAD6C972A96AE
:101640006FAF2A97AF81B8851D92B887AF83E3E368
:10165000F2E0EA17FB07B1F7FFEFCF1ADF0AEF0A54
:10166000FF0A16CD9E3040F42850310981E001C0B8
:10167000880F2A95EAF7A7CB2E503109F7CF8AEECB
:1016800093E00E94CE01F401ED5CFD4F80831FEFDB
:10169000811A910AA10AB10A80925F0390926003B5
:1016A000A0926103B0926203E6CB2A965FAC2A97C0
:1016B0005092C401C9ACC092C501DBA0D092C60152
:1016C000EF8CE092C701CF57DF4FF880C158D04070
:1016D000F092C801EF960FADEF970093C901C15882
:1016E000DF4F1881CF57D0401093CA012DAD209302
:1016F000CB013B8D3093CC014F894093CD0159A94B
:101700005093CE012E966FAD2E976093CF017DA999
:101710007093D0018DA58093D1019B899093D201C4
:10172000ADA1A093D3012296BFAD2297B093D4016F
:10173000CC57DF4FE881C458D040E093D501CD5756
:10174000DF4FF881C358D040F093D601CE57DF4F1A
:101750005880C258D0405092D7016696CFAC669759
:10176000C092A501C058DF4FD880C058D040D09259
:10177000A601CE56DF4FE880C259D040E092A701C3
:10178000CF56DF4FF880C159D040F092A801C05722
:10179000DF4F0881C059D0400093A901C157DF4FE6
:1017A0001881CF58D0401093AA01C257DF4F28812B
:1017B000CE58D0402093AB01C357DF4F3881CD586E
:1017C000D0403093AC01C457DF4F4881CC58D04053
:1017D0004093AD01C557DF4F5881CB58D04050934F
:1017E000AE01C657DF4F6881CA58D0406093AF0141
:1017F000C757DF4F7881C958D0407093B001C857A0
:10180000DF4F8881C858D0408093B101C957DF4F5E
:101810009881C758D0409093B201EE96AFADEE9745
:10182000A093B3016296BFAD6297B093B401CA575B
:10183000DF4FE881C658D040E093B501F9A5F09399
:10184000B60126965FAC26975092B701CB57DF4F73
:10185000C880C558D040C092B801DB84D092B9018D
:10186000EF84E092BA01CD56DF4FF880C359D040E3
:10187000F092BB01CC56DF4F0881C459D040009391
:10188000BC01CB56DF4F1881C559D0401093A3013E
:10189000CA56DF4F2881C659D0402093A401109228
:1018A0005F031092600310926103109262038AEE4C
:1018B00093E00E947F028091C40190E0982F8827D6
:1018C0002091C5016C01C20ED11CDCA2CBA2760115
:1018D0000F2C000C000B110BEDA2FEA20FA318A7FA
:1018E0002090C601312C322C22248091C701280E71
:1018F000311C6101032C000CEE08FF08C9A6DAA612
:10190000EBA6FCA68091C80190E0982F8827209133
:10191000C9017C01E20EF11CF88EEF8A67010D2CE3
:10192000000CEE08FF08CDA6DEA6EFA6F8AA80916F
:10193000CA0190E0982F88272091CB01820F911D3A
:101940007C01990F000B110BE9AAFAAA0BAB1CAB97
:101950008091CC0190E0982F88272091CD01820FB3
:10196000911D6C01990FEE08FF08CDAADEAAEFAA1F
:10197000F8AE8091CE0190E0982F88272091CF017A
:10198000820F911D7C01990F000B110BE9AEFAAE8D
:101990000BAF1CAF8091D00190E0982F8827209149
:1019A000D101820F911D6C01990FEE08FF0821965D
:1019B000CCAEDDAEEEAEFFAE21978091D20190E0CD
:1019C000982F88272091D301820F911D7C01990FB8
:1019D000000B110B2596ECAEFDAE0EAF1FAF259799
:1019E0008091D40190E0982F88272091D501820F13
:1019F000911D6C01990FEE08FF082996CCAEDDAE63
:101A0000EEAEFFAE29978091D60190E0982F8827FF
:101A10002091D701820F911D7C01990F000B110BB2
:101A20002D96ECAEFDAE0EAF1FAF2D974091A701E6
:101A300050E070E060E0762F652F542F44278091AE
:101A4000A801480F511D611D711D8091A90190E0F1
:101A5000B0E0A0E0BA2FA92F982F88272091AA01E3
:101A6000820F911DA11DB11D0091A50110E030E074
:101A700020E0322F212F102F0027E091A6010E0F1A
:101A8000111D211D311D68017901F4E0F594E794E1
:101A9000D794C794FA95D1F7CB8EDC8EED8EFE8E5F
:101AA00001E0C01608E0D006E104F1044CF0970113
:101AB00086011051210931090B8F1C8F2D8F3E8F0C
:101AC0006A017B0114E0F594E794D794C7941A95C2
:101AD000D1F7CF8ED8A2E9A2FAA201E0C01608E0A1
:101AE000D006E104F1044CF0A70196013051410900
:101AF00051092F8F38A349A35AA36C017D01B4E08B
:101B0000F594E794D794C794BA95D1F7CB8ADC8A39
:101B1000ED8AFE8A01E0C01608E0D006E104F10477
:101B20004CF0A70196013051410951092B8B3C8B98
:101B30004D8B5E8B8091AB0190E0B0E0A0E0BA2FBE
:101B4000A92F982F88272091AC016C017D01C20E2E
:101B5000D11CE11CF11CCF86D88AE98AFA8A8091CF
:101B6000AD0190E0B0E0A0E0BA2FA92F982F882710
:101B70002091AE017C018D01E20EF11C011D111DB1
:101B8000EB86FC860D871E878091AF0190E0B0E068
:101B9000A0E0BA2FA92F982F88272091B0016C01BF
:101BA0007D01C20ED11CE11CF11CCF82D886E986D2
:101BB000FA868091B10190E0982F88272091B20198
:101BC000820F911D7C01990F000B110B6196ECAEF9
:101BD000FDAE0EAF1FAF61978091B30190E0982FDB
:101BE00088272091B401820F911D6C01990FEE0896
:101BF000FF086596CCAEDDAEEEAEFFAE6597809188
:101C0000B50190E0982F88272091B601820F911D91
:101C10007C01990F000B110B6996ECAEFDAE0EAF77
:101C20001FAF69974090B901512C712C612C762C13
:101C3000652C542C44248091BA01480E511C611C1F
:101C4000711C8090BB01912CB12CA12CBA2CA92C19
:101C5000982C88248091BC01880E911CA11CB11C79
:101C6000C090A301D12CF12CE12CFE2CED2CDC2C0E
:101C7000CC248091A401C80ED11CE11CF11C0F855D
:101C8000188929893A89013040E81407210531056E
:101C900044F00F5F1F4F210931090F87188B298BE3
:101CA0003A8B6B857C858D859E856130A0E87A07AF
:101CB0008105910544F06F5F7F4F810991096B8722
:101CC0007C878D879E870F81188529853A8501300D
:101CD00040E814072105310544F00F5F1F4F21092B
:101CE00031090F83188729873A8751E0451650E854
:101CF0005506610471042CF06FEF461A560A61080C
:101D0000710871E0871670E89706A104B1042CF001
:101D10008FEF881A980AA108B10891E0C91690E8D7
:101D2000D906E104F1042CF0AFEFCA1ADA0AE1088F
:101D3000F1086B960EAD1FAD6B970115110519F0EB
:101D4000C8010E943D152DA13EA14FA158A5209389
:101D5000920330939303409394035093950349A5C2
:101D60005AA56BA57CA54093960350939703609367
:101D70009803709399036DA57EA58FA598A960938C
:101D80009A0370939B0380939C0390939D0389A96E
:101D90009AA9ABA9BCA980939E0390939F03A0939B
:101DA000A003B093A1030DA91EA92FA938AD0093DC
:101DB000A2031093A3032093A4033093A50329AD9A
:101DC0003AAD4BAD5CAD2093A6033093A70340938F
:101DD000A8035093A90321964CAD5DAD6EAD7FADC8
:101DE00021974093AA035093AB036093AC03709385
:101DF000AD0325966CAD7DAD8EAD9FAD25976093FF
:101E0000AE037093AF038093B0039093B103299610
:101E10008CAD9DADAEADBFAD29978093B2039093CD
:101E2000B303A093B403B093B5032D960CAD1DADD1
:101E30002EAD3FAD2D970093B6031093B7032093BB
:101E4000B8033093B9032B8D3C8D4D8D5E8D20935F
:101E5000BA033093BB034093BC035093BD034F8D33
:101E600058A169A17AA14093BE035093BF03609328
:101E7000C0037093C1036B897C898D899E896093AF
:101E8000C2037093C3038093C4039093C5038F85EB
:101E90009889A989BA898093C6039093C703A093B0
:101EA000C803B093C9030B851C852D853E8500931F
:101EB000CA031093CB032093CC033093CD032F811F
:101EC000388549855A852093CE033093CF034093BC
:101ED000D0035093D1034092D2035092D303609227
:101EE000D4037092D5038092D6039092D703A09228
:101EF000D803B092D903C092DA03D092DB03E09208
:101F0000DC03F092DD036196CCACDDACEEACFFAC53
:101F10006197C092DE03D092DF03E092E003F0927B
:101F2000E1036596ECACFDAC0EAD1FAD6597E0929C
:101F3000E203F092E3030093E4031093E503699650
:101F4000CCACDDACEEACFFAC6997C092E603D092AE
:101F5000E703E092E803F092E90380916B0390912C
:101F60006C03181619061CF50BA11CA10D381105E0
:101F70000CF4CDC31DE8211631040CF4B1C30F8954
:101F8000188D0D381105B4F070E060E090E080E04D
:101F90000E94830310926C0310926B0387E10E94EE
:101FA000500364EF71E080E090E00E94D50080E093
:101FB0000E94500387E894E00E94140309970CF4F0
:101FC0002AC487E894E00E942C03029709F0BCC35E
:101FD00003E613E02FB7F89480916E0390916F039E
:101FE000A0917003B09171032FBF80938F049093E1
:101FF0009004A0939104B093920487E894E00E9427
:102000002C0397FF13C42FB7F89480916E0390911F
:102010006F03A0917003B09171032FBF40918F04A3
:10202000509190046091910470919204841B950BDF
:10203000A60BB70B40918B0450918C0460918D04DA
:1020400070918E0484179507A607B707B0F287E84A
:1020500094E00E94140320916A03892B09F088C33D
:10206000233009F080C38091630310E8819F9001C1
:10207000112480916403820F932F911D885E9340F9
:1020800090936C0380936B032091650330E8239F4A
:10209000A001112420916603240F352F311D2F57E5
:1020A0003109309303012093020110920101109233
:1020B0000001BC010E948303609100017091010145
:1020C00080910201909103010E94540384E090E00A
:1020D0000E948D004FE050E060E271E087E894E0FC
:1020E0000E94070188C38150823008F0E4CB8AEE59
:1020F00093E00E94F001C0905F03D0906003E090F5
:102100006103F0906203CF8AD88EE98EFA8E18169A
:1021100019060CF4E7C1D090A501A296DFAEA297F4
:10212000E090A601A396EFAEA397F090A701A49626
:10213000FFAEA4970091A801A5960FAFA5971091A7
:10214000A901A6961FAFA6972091AA01A7962FAF27
:10215000A7973091AB01A8963FAFA8974091AC01EB
:10216000A9964FAFA9975091AD01AA965FAFAA97D4
:102170006091AE01AB966FAFAB977091AF01AC962B
:102180007FAFAC978091B001AD968FAFAD97909136
:10219000B101AE969FAFAE97A091B201AF96AFAF2F
:1021A000AF97B091B301E096BFAFE097E091B40173
:1021B000E196EFAFE197F091B501E296FFAFE297BC
:1021C0005090B601E3965FAEE397C090B701E496F6
:1021D000CFAEE497D090C401DBA2E090C501EDA2A0
:1021E000F090C601F9A60091C7010DA71091C80192
:1021F00019AB2091C9012DAB3091CA0139AF409183
:10220000CB014DAF5091CC0122965FAF22976091E8
:10221000CD0126966FAF26977091CE012A967FAF9B
:102220002A978091CF012E968FAF2E979091D00153
:1022300062969FAF6297A091D1016696AFAF669705
:10224000B091D2016C96BFAF6C97E091D3016D96BF
:10225000EFAF6D97F091D4016E96FFAF6E975090EF
:10226000D5016F965FAE6F97C090D601A096CFAEA6
:10227000A097D090D701A196DFAEA19740E050E0A3
:10228000BA01EF88F88C098D1A8D4E155F0560072D
:1022900071070CF071C10CED11E01C8B0B8BF80178
:1022A0008181819311E0EA3FF107D1F7FA01ED5CFA
:1022B000FD4F80818093FA019091DC01923009F00A
:1022C0000CC1833009F009C18091DD018F3109F023
:1022D00004C18091DF0190E0B0E0A0E08196A11DF3
:1022E000B11D2091E0012B8F820F911DA11DB11D09
:1022F0002091E101820F911DA11DB11D2091E201EC
:10230000820F911DA11DB11D1091E301810F911D3F
:10231000A11DB11D2091E401820F911DA11DB11DD0
:102320003091E501830F911DA11DB11D0091E601C2
:10233000800F911DA11DB11DE091E701EF838E0F6C
:10234000911DA11DB11DF091E801FB878F0F911D1B
:10235000A11DB11D5090E9015F86850D911DA11D44
:10236000B11DE091EA018E0F911DA11DB11DF091EB
:10237000EB018F0F911DA11DB11DF090EC018F0D90
:10238000911DA11DB11DE090ED018E0D911DA11DAE
:10239000B11DD090EE018D0D911DA11DB11DC090FC
:1023A000EF018C0D911DA11DB11DB090F0018B0DA1
:1023B000911DA11DB11DA090F1018A0D911DA11DBE
:1023C000B11D9090F201890D911DA11DB11D80904C
:1023D000F301880D911DA11DB11D7090F401870DB1
:1023E000911DA11DB11D6090F501860D911DA11DCE
:1023F000B11D5090F6015F8E850D911DA11DB11D7F
:102400005090F701850D911DA11DB11D5090F8014F
:10241000850D911DA11DB11D5090F901850D911DD6
:10242000A11DB11D0396A11DB11D9927AA27BB2788
:102430002090DE01312C512C412C82159305A405EE
:10244000B50509F040C08B8D813009F464C0E49675
:102450006FAEE497E3967FAEE397E2968FAEE29796
:10246000E1969FAEE197E096AFAEE097AF96BFAE34
:10247000AF97AE96CFAEAE97AD96DFAEAD97AC96BA
:10248000EFAEAC97AB96FFAEAB97AA96FFAFAA970D
:10249000A996EFAFA9979F85A8969FAFA897AB8500
:1024A000A796AFAFA797BF81A696BFAFA697A596F1
:1024B0000FAFA597A4963FAFA497A3962FAFA3976E
:1024C000A2961FAFA297AB89BC891D92BC8BAB8B28
:1024D000EBEFF1E0EA17FB07B1F74F5F5F4F6F4F8C
:1024E0007F4FCFCE8AEE93E00E94CE01EF89F88D28
:1024F000ED5CFD4F80838F89988DA98DBA8D0196F3
:10250000A11DB11D80935F0390936003A0936103AD
:10251000B0936203ECCD5F8CA1965FAEA197A096BD
:102520006FAEA0976F967FAE6F976E968FAE6E97D9
:102530006D969FAE6D976C96AFAE6C976696BFAE7C
:1025400066976296CFAE62972E96DFAE2E972A964A
:10255000EFAE2A972696FFAE26972296FFAF2297D8
:10256000EDAFCF84C9AEDB84DDAAEF80E9AA0DA769
:1025700039A72DA31BA3A7CFFBA1F093C4015DA096
:102580005092C501C9A4C092C601DDA4D092C70172
:10259000E9A8E092C801FDA8F092C90109AD009335
:1025A000CA011DAD1093CB0122962FAD2297209327
:1025B000CC0126963FAD26973093CD012A964FAD9C
:1025C0002A974093CE012E965FAD2E975093CF0160
:1025D00062966FAD62976093D00166967FAD669705
:1025E0007093D1016C968FAD6C978093D2016D96EC
:1025F0009FAD6D979093D3016E96AFAD6E97A093FC
:10260000D4016F96BFAD6F97B093D501A096EFAD93
:10261000A097E093D601A196FFADA197F093D701C3
:10262000A2965FACA2975092A501A396CFACA397B8
:10263000C092A601A496DFACA497D092A701A5965C
:10264000EFACA597E092A801A696FFACA697F092F2
:10265000A901A7960FADA7970093AA01A8961FAD51
:10266000A8971093AB01A9962FADA9972093AC0121
:10267000AA963FADAA973093AD01AB964FADAB97FD
:102680004093AE01AC965FADAC975093AF01AD9661
:102690006FADAD976093B001AE967FADAE9770937E
:1026A000B101AF968FADAF978093B201E0969FAD29
:1026B000E0979093B301E196AFADE197A093B40199
:1026C000E296BFADE297B093B501E396EFADE39725
:1026D000E093B601E496FFADE497F093B701DFC84D
:1026E0001CE8211631040CF065CC0F89188D0C38CC
:1026F00011050CF05FCC70E060E090E080E00E949B
:10270000830310926C0310926B0384E148CC0BA1FD
:102710001CA10C38110509F44DCC1CE8211631041C
:102720000CF048CC0F89188D0D3811050CF442CCF3
:1027300070E060E090E080E00E94830310926C0300
:1027400010926B038AE12BCC0E94AD0382E090E0F3
:102750000E948D004FE050E060E271E087E894E075
:102760000E94070174CC0E94AD0383E090E0B0CCDE
:102770002330C9F78091630340E8849F90011124BE
:1027800080916403820F932F911D885E93409093F4
:102790006C0380936B032091650360E8269FA00182
:1027A000112420916603240F352F311D2F57310935
:1027B0003093030120930201109201011092000155
:1027C000BC010E948303609100017091010180911E
:1027D0000201909103010E94540384E090E00E9462
:1027E0008D004FE050E060E271E087E894E00E94E5
:1027F00007010E94AD0380E090E0892B11F40C9456
:102800001A070E94FC01882311F40C941A070E94F5
:1028100000000C941A0787E894E00E941403892BA7
:1028200051F30E94AD0381E090E052CCD8018D932A
:102830008D01EBE6F3E0EA17FB0709F0CBCB07CC01
:102840008BE491E0909388048093870480919C01AD
:1028500090919D018758944071F4E0919A04F09111
:102860009B04908180919C048095892380831092A1
:102870009D0110929C0108952F923F924F925F927A
:102880006F927F928F929F92AF92BF92CF92DF9280
:10289000EF92FF920F931F93CF93DF93CDB7DEB7E5
:1028A000CA1BDB0B0FB6F894DEBF0FBECDBF099479
:1028B0002A88398848885F846E847D848C849B84D0
:1028C000AA84B984C884DF80EE80FD800C811B81DE
:1028D000AA81B981CE0FD11D0FB6F894DEBF0FBE0D
:1028E000CDBFED01089597FB072E16F4009407D095
:1028F00077FD09D00E94871407FC05D03EF490951F
:1029000081959F4F0895709561957F4F0895AA1BFB
:10291000BB1B51E107C0AA1FBB1FA617B70710F0CA
:10292000A61BB70B881F991F5A95A9F780959095FC
:10293000BC01CD010895EE0FFF1F0590F491E02D2D
:1029400009940F931F93CF93DF938230910510F476
:1029500082E090E0E091A804F091A90430E020E04A
:10296000B0E0A0E0309799F42115310509F44AC090
:10297000281B390B24303105D8F58A819B816115DC
:10298000710589F1FB0193838283FE0111C04081AF
:1029900051810281138148175907E0F04817590700
:1029A00099F4109761F012960C93129713961C935A
:1029B0003296CF01DF91CF911F910F91089500932F
:1029C000A8041093A904F4CF2115310551F0421742
:1029D000530738F0A901DB019A01BD01DF01F801BD
:1029E000C1CFEF01F9CF9093A9048093A804CDCF74
:1029F000FE01E20FF31F8193919322503109398335
:102A00002883D7CF2091A6043091A704232B41F42B
:102A100020913101309132013093A7042093A60414
:102A200020912F01309130012115310541F42DB74E
:102A30003EB74091330150913401241B350BE09196
:102A4000A604F091A704E217F307A0F42E1B3F0B96
:102A50002817390778F0AC014E5F5F4F2417350710
:102A600048F04E0F5F1F5093A7044093A604819334
:102A700091939FCFF0E0E0E09CCFCF93DF9300975E
:102A8000E9F0FC01329713821282A091A804B09160
:102A9000A904ED0130E020E01097A1F420813181FC
:102AA000820F931F2091A6043091A704281739079D
:102AB00009F061C0F093A704E093A604DF91CF91E1
:102AC0000895EA01CE17DF07E8F54A815B819E0190
:102AD00041155105B1F7E901FB83EA834991599109
:102AE000C40FD51FEC17FD0761F480819181029618
:102AF000840F951FE90199838883828193819B8349
:102B00008A83F0E0E0E012968D919C9113970097F4
:102B1000B9F52D913C911197CD010296820F931F2B
:102B20002091A6043091A7042817390739F6309769
:102B300051F51092A9041092A804B093A704A09391
:102B4000A604BCCFD383C28340815181840F951FDB
:102B5000C817D90761F44E5F5F4F88819981480F8C
:102B6000591F518340838A819B81938382832115DE
:102B7000310509F0B0CFF093A904E093A8049ECFEB
:102B8000FD01DC01C0CF13821282D7CFB0E0A0E0FC
:102B9000ECECF5E10C943E148C01009751F4CB0160
:102BA0000E94A1148C01C801CDB7DEB7E0E10C94FE
:102BB0005A14FC01E60FF71F9C0122503109E2175D
:102BC000F30708F49DC0D901CD91DC911197C61788
:102BD000D70798F0C530D10530F3CE01049786179A
:102BE000970708F3C61BD70B2297C193D1936D9318
:102BF0007C93CF010E943D15D6CF5B01AC1ABD0A74
:102C00004C018C0E9D1EA091A804B091A904512CDA
:102C1000412CF12CE12C109731F58091A604909174
:102C2000A7048815990509F05CC04616570608F0F8
:102C300058C080912F0190913001009741F48DB7D9
:102C40009EB74091330150913401841B950BE817D6
:102C5000F90708F055C0F093A704E093A604F90122
:102C600071836083A0CF8D919C91119712966C9087
:102C7000129713967C901397A815B90559F56C0116
:102C800042E0C40ED11CCA14DB0420F1AC014A1985
:102C90005B09DA011296159780F062827382518384
:102CA0004083D9016D937C93E114F10471F0D70155
:102CB0001396FC93EE93129776CF22968C0F9D1F5E
:102CC000F90191838083F301EFCFF093A904E0939E
:102CD000A80469CF4816590608F42C017D01D301D8
:102CE0009ACFCB010E94A1147C01009749F0AE015C
:102CF000B8010E948316C8010E943D15870153CF79
:102D000010E000E050CFFB01DC0102C001900D9209
:102D100041505040D8F70895FB01DC0101900D921D
:102D20000020E1F7089510E0C2E6D0E004C0FE0103
:102D30000E949B142196C336D107C9F7F894FFCFA0
:102D40007F007F0000000000010000000000000084
:102D50000000000000000000000000000000000073
:102D6000020000000000000000000000000003005E
:102D700000AA0480000000000032020701BF017FAA
:102D800002F001CE01E20100000000B80207014D8F
:0A2D900003B70214032C039F020096
:00000001FF
